:020000040800F2
:10000000B805002001010008E9340008F12C0008BF
:100010004534000821090008053F000800000000E1
:100020000000000000000000000000008136000811
:100030007709000800000000FD350008BD37000802
:100040001B0100081B0100081B0100081B01000820
:100050001B0100081B0100081B0100081B01000810
:100060001B0100081B0100081B0100081B01000800
:100070001B0100081B0100081B0100081B010008F0
:100080001B0100081B0100081B0100081B010008E0
:100090001B010008250900081B0100081B010008BE
:1000A0001B0100081B0100081B0100081B010008C0
:1000B0002D3800081B0100081B0100081B01000867
:1000C0001B0100081B0100081B0100081B010008A0
:1000D0001B010008F53E00081B0100081B01000879
:1000E0001B0100081B0100081B010008DFF80CD0F1
:1000F00000F086FB0048004769480008B80500206A
:100100000648804706480047FEE7FEE7FEE7FEE7B1
:10011000FEE7FEE7FEE7FEE7FEE7FEE72B38000816
:10012000ED000008202A04DB203A21FA02F0002129
:10013000704721FA02F3D040C2F1200291400843F7
:1001400019467047D2B201E000F8012B491EFBD2DC
:1001500070470022F6E710B513460A4604461946D2
:10016000FFF7F0FF204610BDF0B480EA0102D40F83
:100170004200B2EB410F02D20246084611464A0045
:1001800042D0C30DDDB2C1F3C752AD1A202D35DA0E
:10019000C1F3160141F4000204B15242C5F1200638
:1001A00002FA06F12A411044B3EBD05F23D0C4B168
:1001B000012DA0EBC35009DCF0BC4FF0004202EA75
:1001C000C352DBB200F5000000F034B9400000F18A
:1001D000807000EBC350A0F1807040EAD1704900FC
:1001E00009E0490841EAC071A0EBC35000F50000E6
:1001F000400800EBC350F0BC00F013B9614201228B
:1002000002EB4101001BF6E7F0BC704781F00041B2
:10021000AAE780F00040A7E780EA010210B502F0EB
:100220000043400022D04A001FD0010E01EB1261B2
:10023000C0F35600C2F3560240F4000042F400023C
:10024000A0FB022000047F39140400D0401C50EAB7
:10025000124001D44000491EC2B20C0604EBD0107B
:10026000401C4008802A02D003E0002010BD20F08E
:100270000100002900DA0020184310BD30B480EAE4
:10028000010202F0004530F0004221F0004013D09E
:1002900090B1C30DD40DC2F31601C0F31600E41AD9
:1002A00041F4000140F400027D34914201D3641C0A
:1002B00000E04900002C02DA30BC002070474FF407
:1002C00000000023914201D3891A034340084FEAFA
:1002D0004101F7D151B1914202D14FF0004105E007
:1002E00002D24FF0010101E06FF0010103EBC450B5
:1002F000284430BC00F095B8C10F80EAE070084493
:10030000CA079623002100F095B8962300221146D3
:1003100000F090B800F0004220F00040C10DC0F3A2
:10032000160040F400007F2901DA0020704796296A
:1003300003DCC1F19601C84001E096398840002AEB
:10034000F4D04042704700F0004230F000400AD044
:10035000C10D01F56071C0F3160042EA0151C208F7
:10036000400711437047002001467047002801DB19
:10037000C0F10040002901DBC1F10041814270471A
:10038000002801DBC0F10040002901DBC1F1004180
:100390008842704730B50B460146002020220124D8
:1003A00009E021FA02F59D4205D303FA02F5491B43
:1003B00004FA02F52844151EA2F10102F1DC30BD59
:1003C0002DE9F05F0546002092469B46884606468A
:1003D000814640241BE02846414647462246FFF717
:1003E000A1FE53465A46C01A914110D311461846F1
:1003F000224600F017FA2D1A67EB01084F462246F5
:100400000120002100F00EFA17EB00094E41201EDA
:10041000A4F10104DFDC484631462A464346BDE8E4
:10042000F09F0029A8BF7047401C490008BF20F07A
:100430000100704710B4B0FA80FC00FA0CF050EAEA
:10044000010404BF10BC704749B1CCF1200421FA6B
:1004500004F411FA0CF118BF012121430843A3EB66
:100460000C01CB1D4FEA00614FEA102042BF002073
:1004700010BC704700EBC35010440029A4BF10BC4F
:100480007047401C490008BF20F0010010BC7047B5
:100490002DE9FE4F804681EA0300C00F0C46009014
:1004A00021F0004123F00045B8EB0200A94105D23C
:1004B0004046214690461C460B46024623F000402B
:1004C000104347D0270DC7F30A00C3F30A51029027
:1004D000401A019040286BDAC3F3130040F4801BEC
:1004E0000098924620B10023D2EB030A63EB0B0B7A
:1004F00001985946C0F14002504600F093F9064673
:100500000D4650465946019A00F09BF910EB080041
:100510006141002487EA115284EAE7731A4340D00C
:10052000009A62B3019A012A4FEA075215DC001BB8
:1005300061EB02014FF0004202EA0752CDE90042AE
:10054000001C41F5801132462B4600F09BF903B0A8
:10055000BDE8F08F40462146F9E7001B61EB020140
:10056000001C41F5801300185B412018A2F500170C
:1005700047EB030140EAD570B6196D4111E06D08F3
:100580004FEA360645EAC0754FEA0752001B61EB99
:100590000201001C41F5801149084FEA30000019A2
:1005A000514132462B4603B0BDE8F04F00F05BB935
:1005B0000098012240000023D0EB020263EBE073BD
:1005C000009821464FEAE074B8EB000061EB0401AB
:1005D000E9E783F000435BE781F0004158E72DE94C
:1005E000FE4F81EA030404F0004421F0004100942E
:1005F0004FF0000B23F0004350EA01045ED052EAB2
:1006000003045BD0C3F30A54C1F30A552C44A4F28B
:10061000F3340194A0FB0254C1F3130141F480119F
:10062000C3F3130343F4801301FB024400FB034EA6
:10063000840A970A44EA815447EA8357A4FB07686F
:1006400002958D0A05FB07854FEA932C04FB0C5499
:100650002705029D4FEA065847EA1637B5EB08050D
:100660006EEB070C870E920E47EA811742EA83125F
:10067000A7FB0201B6EB0B0164EB00042B0D43EA70
:100680000C335E1844EB1C50DA465146E7FB02017E
:10069000C5F313044FEA0B3343EA14534FEA043211
:1006A000019C43EA0603A4F10C040294009CCDE9EA
:1006B00000B400F0E7F803B0BDE8F08F0020014679
:1006C000F9E72DE9F04D81EA030404F0004B21F035
:1006D000004514464FF0000A23F0004150EA05029D
:1006E00020D054EA01021DD0C5F30A570246C5F3D3
:1006F0001303C1F31300C1F30A5640F4801543F409
:100700008013A7EB0608101BD64608F2FD3873EBE2
:10071000050002D308F1010801E092185B41B8F12D
:10072000000F03DA00200146BDE8F08D00204FF4F1
:100730008011064684460EE0171B73EB050705D3B0
:10074000121B63EB050306434CEA010C49084FEA10
:10075000300092185B4150EA0107EDD152EA0300E4
:1007600012D082EA040083EA0501084305D0101B79
:10077000AB4106D20122002306E000224FF00043E5
:1007800002E06FF0010253101AEB06004CEB085127
:1007900010EB0A0041EB0B01BDE8F04D00F063B82F
:1007A000C1F30A52C1F3130140F2FF3341F4801147
:1007B0009A4202DA00200146704740F233439A42DF
:1007C000A2F2334202DC5242FFF7ACBC00F02AB87E
:1007D00030B5041E71F1000404DB4FF000444042C8
:1007E00064EB0101141E73F1000405DB1C464FF09D
:1007F0000043524263EB0403994208BF904230BD6C
:10080000064C074D06E0E06840F0010394E807005D
:1008100098471034AC42F6D3FFF76CFC304B00081D
:10082000504B0008202A04DB203A00FA02F1002095
:1008300070479140C2F1200320FA03F3194390401E
:100840007047202A06DBCB17203A41FA02F043EA30
:10085000E07306E041FA02F3D040C2F12002914079
:1008600008431946704710B5141E73F1000408DAE6
:10087000401C41F1000192185B411A4301D120F064
:10088000010010BD2DE9F04D92469B4611B1B1FA21
:1008900081F202E0B0FA80F220329046FFF7C2FF08
:1008A00004460F4640EA0A0041EA0B0153465A4605
:1008B000084313D0114653EA010019D0C8F1400291
:1008C0005046FFF72FFC05460E4650465946424615
:1008D000FFF7A8FF084305D0012004E02046394671
:1008E000BDE8F08D0020054346EAE0762C4337430F
:1008F0000A986305E40AA0EB08000022FD0A44EA16
:1009000047540A3002D500200146E9E701051019D5
:100910006941DDE9084500196941BDE8F04DA2E7EC
:1009200000BFFEE710B5024800F0C4F810BD00009B
:10093000240000200021016041608160C1600161EC
:10094000416181610121C161016200214162704701
:1009500010B58AB004466846FFF7ECFF69462046AA
:1009600000F022F80221204600F009F8204600F0AD
:10097000D4FA0AB010BD704772B600BFFEE710B5DA
:10098000024692F82030012B01D0022B06D11068CC
:100990004069084314686061002010BD506A40F44B
:1009A000802050620120F8E7F0B504460A4621682D
:1009B00094F82050012D01D0022D74D1D1F80002FD
:1009C00040F00100C1F80002107D00F01F06012078
:1009D00000FA06F3D1F81C029843C1F81C02D06952
:1009E000C8B9D1F80C029843C1F80C02908880B2C3
:1009F000968940EA064601F51070576940F837605D
:100A0000108880B2168940EA064601F510705769D1
:100A100000EBC7004660D069012819D1D1F80C025B
:100A20001843C1F80C02908880B2168840EA064646
:100A300001F51070576940F83760908980B21689C7
:100A400040EA064601F51070576900EBC7004660A2
:100A5000906928B9D1F804029843C1F8040204E06F
:100A6000D1F804021843C1F80402106928B9D1F87A
:100A700014029843C1F8140204E0D1F81402184398
:100A8000C1F81402106A012804D1D1F81C021843DD
:100A9000C1F81C02D1F8000220F00100C1F80002E8
:100AA0000020F0BDFFE7606A40F480206062012012
:100AB000F7E770472DE9F05F044600252068466996
:100AC0002068D0F80490206887682068D0F80CA0CF
:100AD0002068D0F810B02068D0F8188006F0010027
:100AE000002855D007F00100C0B1012021688860BE
:100AF00007F0020018B1204600F03FFA0EE007F0C0
:100B0000040010B145F4006508E007F0080010B1DA
:100B100045F4805502E0204600F02EFA07F480707C
:100B2000C8B14FF480702168886007F4007018B174
:100B3000204600F024FA0EE007F4806010B145F47E
:100B4000005508E007F4006010B145F4804502E06C
:100B5000204600F013FA07F48030C8B14FF480301B
:100B60002168886007F4003018B1204600F009FAC7
:100B70000EE007F4802010B145F4004508E007F4CA
:100B8000002010B145F4803502E0204600F0F8F96D
:100B900006F0080038B10AF0100020B145F40075E5
:100BA00010202168C86006F0040040B10AF0080077
:100BB00028B108202168C860204600F0A9F906F095
:100BC000020038B12068C06800F0030010B1204670
:100BD00000F09FF906F0400038B10BF0100020B192
:100BE00045F4806510202168086106F0200040B1BE
:100BF0000BF0080028B1082021680861204600F0A9
:100C000089F906F0100038B12068006900F003008F
:100C100010B1204600F07FF906F4003040B109F031
:100C2000100028B1102021684860204600F074F9B7
:100C300006F4803040B109F0080028B1082021688E
:100C40004860204600F09EF906F4004088B309F0A1
:100C5000040078B306F4807020B108F0010008B1F8
:100C600045F0010506F4007020B108F0020008B15B
:100C700045F0020506F4806020B108F0040008B1D8
:100C800045F0040506F40060A0B108F0700088B1DA
:100C900008F07000402817D006DC10280BD0202860
:100CA0000CD0302819D10CE0502810D0602814D175
:100CB00010E01DE019E045F008050FE045F01005D3
:100CC0000CE045F0200509E045F0400506E045F060
:100CD000800503E045F4807500E000BF00BF206898
:100CE000806920F0700021688861042021684860D4
:100CF0002DB1606A284360622046FFF7DAFEBDE846
:100D0000F09F70B504460CB9012070BD94F8200026
:100D100010B9204600F0B0F82068006840F00100EB
:100D20002168086000F05CFB05460DE000F058FB10
:100D3000401B0A2808D9606A40F400306062052030
:100D400084F820000120E0E72068406800F00100FE
:100D50000028EBD02068006820F0020021680860BD
:100D600000F03EFB05460DE000F03AFB401B0A2870
:100D700008D9606A40F400306062052084F82000E1
:100D80000120C2E72068406800F002000028EBD193
:100D9000207E012806D12068006840F0800021688C
:100DA000086005E02068006820F080002168086085
:100DB000607E012806D12068006840F0400021686C
:100DC000086005E02068006820F0400021680860A5
:100DD000A07E012806D12068006840F0200021682C
:100DE000086005E02068006820F0200021680860A5
:100DF000E07E012806D12068006820F010002168FC
:100E0000086005E02068006840F010002168086074
:100E1000207F012806D12068006840F00800216882
:100E2000086005E02068006820F00800216808607C
:100E3000607F012806D12068006840F00400216826
:100E4000086005E02068006820F004002168086060
:100E5000D4E90201084321690843616908436168D4
:100E6000491E08432168C86100206062012084F89F
:100E70002000002049E7000010B586B0044600209D
:100E800002900390049005901E492068884236D154
:100E900000BF1D48C06940F000701B49C86108468A
:100EA000C06900F00070019000BF00BF00BF08469D
:100EB000806940F0040088610846806900F0040001
:100EC000019000BF00BFC81402900020039004905E
:100ED00002A90E4800F0EEF84FF480500290022074
:100EE00003900320059002A9084800F0E3F80022CF
:100EF0001146142000F0E2FD142000F0CFFD06B0F2
:100F000010BD0000006400400010024000080140D5
:100F10007047704770477047704770B5044694F843
:100F20002000012822D1022084F8200020680068D7
:100F300020F001002168086000F052FA05460DE03B
:100F400000F04EFA401B0A2808D9606A40F40030CD
:100F50006062052084F82000012070BD2068406890
:100F600000F001000028EBD16062F6E7606A40F40F
:100F7000002060620120F0E77047704770477047BB
:100F80007047704770470146002291F821000228FF
:100F900008D00420886300BF002081F8200000BF33
:100FA000012070470868006820F00E000B68186088
:100FB0000868006820F001000B68186091F8403064
:100FC00001209840CB6B5860012081F8210000BFC0
:100FD000002081F8200000BF1046E2E770B504460B
:100FE000002594F82100022803D00420A0630125E5
:100FF00048E02068006820F00E0021680860206842
:10100000006820F00100216808601F4920688842BC
:1010100001D1012026E01C4914312068884201D109
:1010200010201FE0184928312068884201D180151E
:1010300018E015493C312068884201D1801411E044
:10104000114950312068884202D14FF4803009E0C4
:101050000D4964312068884202D14FF4801001E0CC
:101060004FF08070084908394860012084F8210059
:1010700000BF002084F8200000BF606B10B1204644
:10108000616B8847284670BD0800024070B5044671
:1010900000F0A6F906462546681C10B10448007801
:1010A000054400BF00F09CF9801BA842FAD370BD34
:1010B000080000202DE9F8470346002294466EE11F
:1010C0004FF0010808FA02F4D1F8008008EA0400A1
:1010D000A0427DD1DFF8DCA2D1F80480A8EB0A0998
:1010E000D0453AD014DCB8F1030F50D009DCB8F188
:1010F000000F31D0B8F1010F1CD0B8F1020F49D167
:1011000020E0B8F1110F18D0B8F1120F42D11EE053
:10111000B9F5881F25D006DCB9F5803F20D0B9F598
:10112000801F37D11AE0B9F5001F18D0B9F5041F98
:1011300030D117E0D1F80CC02DE0D1F80C8008F1C7
:10114000040C28E0D1F80C8008F1080C23E0D1F859
:101150000C8008F10C0C1EE000BF00BF00BF00BFF8
:1011600000BF00BFD1F80880B8F1000F02D14FF0E6
:10117000040C0BE0D1F80880B8F1010F03D14FF057
:10118000080C1C6102E04FF0080C5C6103E04FF0BA
:10119000000C00E000BF00BFFF2801D8984601E026
:1011A00003F104084646FF2802D84FEA820803E00C
:1011B000A2F108084FEA88084746D6F800804FF0A9
:1011C0000F0909FA07F928EA09080CFA07F900E0FB
:1011D00088E048EA0908C6F80080D1F8048008F0E1
:1011E0008058B8F1805F7DD100BFDFF8CC81D8F89E
:1011F000188048F00108DFF8C091C9F81880C84687
:10120000D8F8188008F00108CDF8008000BF00BFB2
:101210004FEAB9384FEA920958F829504FEA8278D4
:101220004FEA18794FF00F0808FA09F825EA08057F
:10123000DFF88881434502D14FF0000816E0DFF85F
:101240008081434502D14FF001080FE0DFF874813F
:10125000434502D14FF0020808E0DFF86C814345B6
:1012600002D14FF0030801E04FF004084FEA827901
:101270004FEA197908FA09F848EA0505DFF84C81C0
:101280004FEA920948F82950D1F8048008F48018F0
:10129000B8F5801F0AD1DFF83881D8F8008048EA15
:1012A0000008DFF82C91C9F8008009E0DFF8208100
:1012B000D8F8008028EA0008DFF81491C9F8008007
:1012C000D1F8048008F40018B8F5001F10D1DFF839
:1012D000008108F10408D8F8008048EA0008DFF827
:1012E000F09000E05AE009F10409C9F800800DE02F
:1012F000DFF8DC8008F10408D8F8008028EA00084C
:10130000DFF8CC9009F10409C9F80080D1F8048015
:1013100008F40038B8F5003F0ED1DFF8B480A8F12A
:101320000408D8F8008048EA0008DFF8A490A9F182
:101330000409C9F800800DE0DFF89480A8F10408E2
:10134000D8F8008028EA0008DFF88490A9F10409A1
:10135000C9F80080D1F8048008F48038B8F5803FDF
:101360000ED1DFF86C80A8F10808D8F8008048EAB0
:101370000008DFF85C90A9F10809C9F800800DE0C9
:10138000DFF84C80A8F10808D8F8008028EA0008A7
:10139000DFF83C90A9F10809C9F80080521CD1F887
:1013A000008028FA02F8B8F1000F7FF489AEBDE89A
:1013B000F8870000000011100010024000080140F2
:1013C000000C0140001001400014014008000140E1
:1013D000080401400AB1016101E00B040361704798
:1013E00001480068704700000000002070B5044606
:1013F0000CB9012070BD94F83D0028B9002084F894
:101400003C00204600F094FA242084F83D00206837
:10141000006820F00100216808602068006840F43E
:101420000040216808602068006820F400402168BE
:10143000086000F061FC05465C496068884206D897
:101440005B48854201D2012007E0002005E05948B1
:10145000854201D2012000E00020012800D1C9E727
:101460005548B5FBF0F62068406820F03F00304357
:10147000216848604D496068884201D8701C07E0C7
:101480004FF4967070434FF47A71B0FBF1F0401C4A
:101490002168096A21F03F01084321680862434935
:1014A0006068884214D8681E61684900B0FBF1F09A
:1014B000401CC0F30B00042801D204203DE0681E4C
:1014C00061684900B0FBF1F0401CC0F30B0034E050
:1014D000A06838B9681E616801EB4101B0FBF1F00A
:1014E000401C0AE0681E616801EBC10202EB0111B9
:1014F000B0FBF1F0401C40F48040C0F30B0008B991
:1015000001201AE0A06848B9681E616801EB41013A
:10151000B0FBF1F0401CC0F30B000CE0681E6168EA
:1015200001EBC10202EB0111B0FBF1F0401CC0F372
:101530000B0040F4804040F400402168C9694CF63B
:10154000FF72914308432168C861D4E90701084349
:101550002168096821F0C001084321680860D4E9C6
:10156000031008432168896848F2FF329143084319
:1015700021688860D4E9050108432168C96821F021
:10158000FF0108432168C8602068006840F001003E
:101590002168086000202064202084F83D0000209D
:1015A000206384F83E0000BF24E70000A08601000D
:1015B00080841E0000093D0040420F002DE9FE4FCF
:1015C00004460F4690469946DDE90CAB0E9E00207E
:1015D0000290FFF705FF054694F83D00202872D1E0
:1015E00019230122CE492046009501F053FC10B189
:1015F0000220BDE8FE8F00BF94F83C00012801D115
:101600000220F6E7012084F83C0000BF2068006853
:1016100000F0010028B92068006840F0010021684E
:1016200008602068006820F40060216808602220BB
:1016300084F83D00402084F83E0000202064C4F877
:1016400024A0A4F82AB0608D2085B648E0624B46FD
:10165000424639462046CDE9006501F06BFB08B1F2
:101660000120C6E7208D88B900BF002001902068C6
:101670004069019020688069019000BF00BF206828
:10168000006840F40070216808604BE0208D01285C
:101690001AD12068006820F480602168086072B662
:1016A00000BF002001902068406901902068806997
:1016B000019000BF00BF2068006840F400702168FE
:1016C000086062B62EE029E1208D022819D1206839
:1016D000006840F400602168086072B600BF002016
:1016E000019020684069019020688069019000BFE6
:1016F00000BF2068006820F480602168086062B63E
:1017000010E02068006840F480602168086000BF35
:101710000020019020684069019020688069019054
:1017200000BF00BFEBE0208D03287DD8208D01286D
:1017300015D12A463146204601F088FC08B1012027
:1017400057E720680069616A0870606A401C60623F
:10175000208D401E2085608D401E6085CFE0208D4D
:1017600002282CD1334600226F492046009501F013
:1017700091FB08B101203CE772B62068006840F494
:1017800000702168086020680069616A0870606AFA
:10179000401C6062208D401E2085608D401E60854B
:1017A00062B620680069616A0870606A401C606205
:1017B000208D401E2085608D401E60859FE0334651
:1017C000002259492046009501F064FB08B1012030
:1017D0000FE72068006820F480602168086072B616
:1017E00020680069616A0870606A401C6062208D30
:1017F000401E2085608D401E60854C480068192180
:10180000B0FBF1F04FF47A71B0FBF1F0C0EBC00027
:1018100000EB8000029000BF0298401E02900298E8
:10182000A8B90020206300E039E0202084F83D00C2
:10183000002084F83E00206C40F02000206462B656
:1018400000BF002084F83C0000BF0120D1E62068E2
:101850004069C0F380000028DED02068006840F4B2
:1018600000702168086020680069616A0870606A19
:10187000401C6062208D401E2085608D401E60856A
:1018800062B620680069616A0870606A401C606224
:10189000208D401E2085608D401E60852FE02A46E9
:1018A0003146204601F0D2FB08B10120A1E62068B4
:1018B0000069616A0870606A401C6062208D401E89
:1018C0002085608D401E608520684069C0F38000DF
:1018D000A8B1208D032805D12068006820F480601D
:1018E0002168086020680069616A0870606A401CAD
:1018F0006062208D401E2085608D401E6085208D99
:1019000000287FF410AF202084F83D00002084F8E8
:101910003E0000BF84F83C0000BF6AE6022068E693
:10192000020010000000FFFF040001000C00002076
:1019300010B586B0044600200290039004900590F4
:101940001A49206888422FD100BF1948806940F0A9
:101950000800174988610846806900F00800019076
:1019600000BF00BF4FF4407002901220039003208C
:10197000059002A90F48FFF79DFB00BF0E4948687C
:1019800040F0E06040F00200486000BF00BF08483F
:10199000C06940F400100649C8610846C06900F4F7
:1019A0000010019000BF00BF06B010BD0054004001
:1019B00000100240000C0140000001400348006894
:1019C0000349097808440149086070470000002075
:1019D0000800002010B50848006840F010000649D3
:1019E0000860032000F0A8F80F2000F007F800F0CE
:1019F0002BF8002010BD00000020024070B5044606
:101A00000E4800784FF47A71B1FBF0F00C49096888
:101A1000B1FBF0F5284600F0F9FB08B1012070BDDC
:101A2000102C07D200222146501E00F047F805482E
:101A3000046001E00120F2E70020F0E70800002048
:101A40000C0000200400002008B500BF1148806988
:101A500040F001000F4988610846806900F00100EC
:101A6000009000BF00BF00BF0846C06940F0805032
:101A7000C8610846C06900F08050009000BF00BFF8
:101A800000BF0549486820F0E06040F00070486001
:101A900000BF08BD0010024000000140014608469A
:101AA000002809DB00F01F0301229A4043099B0034
:101AB00003F1E023C3F8002100BF70472DE9F05F78
:101AC00080460D461646002702F02EFA0746394694
:101AD0002A46334601F00700C0F1070ABAF1040FA5
:101AE00002D94FF0040A01E0C0F1070AD14600F123
:101AF000040ABAF1070F02D24FF0000A01E0A0F188
:101B0000030AD4464FF0010A0AFA09FAAAF1010AB7
:101B10000AEA020A0AFA0CFA4FF0010B0BFA0CFB64
:101B2000ABF1010B0BEA030B4AEA0B0421464046DA
:101B300002F002FABDE8F09F00BF00F00702064B7A
:101B400019684FF6FF031940044B0B4343EA022187
:101B5000014B196000BF70470CED00E00000FA0572
:101B600070B504460D460CB9012070BD5A48006896
:101B700000F00700A8420ED25748006820F0070086
:101B80002843554908600846006800F00700A8424D
:101B900001D00120E9E7207800F0020002281DD1E1
:101BA000207800F00400042805D14C48406840F437
:101BB000E0604A494860207800F00800082805D114
:101BC0004648406840F46050444948604348406893
:101BD00020F0F000A168084340494860207800F0F8
:101BE000010078B36068012806D13C48006800F421
:101BF000003090B90120B8E76068022806D1374864
:101C0000006800F0007040B90120AEE7334800687A
:101C100000F0020008B90120A7E73048406820F032
:101C20000300616808432D494860FFF7D9FB064669
:101C300009E0FFF7D5FB801B41F28831884202D9C9
:101C4000032092E707E02548406800F00C00616837
:101C5000B0EB810FEDD12048006800F00700A842EA
:101C60000ED91D48006820F0070028431A49086073
:101C70000846006800F00700A84201D0012074E780
:101C8000207800F00400042807D11448406820F4AC
:101C9000E060E168084311494860207800F00800DE
:101CA000082808D10D48406820F46050216940EAB6
:101CB000C1000A49486000F03FF808494968C1F38B
:101CC0000311074A515CC84006490860064800688D
:101CD000FFF794FE002048E7002002400010024079
:101CE000164B00080C00002004000020014800688A
:101CF000704700000C00002000B5FFF7F7FF044913
:101D00004968C1F30221034A515CC84000BD00008C
:101D100000100240264B000800B5FFF7E7FF04491A
:101D20004968C1F3C221034A515CC84000BD0000AC
:101D300000100240264B000870B50021002200244C
:101D400000230020134D696801F00C05F5B1042D46
:101D500002D0082D19D101E00F4819E00F4DC1F351
:101D60008346AB5D01F4803555B10A4D6D68C5F30E
:101D700040450B4E725D084D5D43B5FBF2F402E049
:101D8000084D03FB05F4204602E000BF024800BFF7
:101D900000BF70BD0010024000127A00044B000822
:101DA000144B000800093D00F8B504460CB90120A9
:101DB000F8BD207800F00100002878D0F84840688D
:101DC00000F00C0004280CD0F548406800F00C002E
:101DD000082811D1F248406800F48030B0F5803F07
:101DE0000AD1EF48006800F4003000285FD0606836
:101DF00000285CD10120DBE700BF6068B0F5803FC0
:101E000006D1E748006840F48030E549086028E0E2
:101E1000606858B9E248006820F48030E049086002
:101E20000846006820F4802008601AE06068B0F579
:101E3000A02F0BD1DA48006840F48020D849086010
:101E40000846006840F4803008600AE0D448006822
:101E500020F48030D24908600846006820F48020D1
:101E6000086000BF606888B1FFF7BAFA054606E06F
:101E7000FFF7B6FA401B642801D9032098E7C84849
:101E8000006800F400300028F2D010E0FFF7A8FA54
:101E9000054606E0FFF7A4FA401B642801D9032099
:101EA00086E7BF48006800F400300028F2D12078AF
:101EB00000F00200022857D1B948406800F00C0039
:101EC00050B1B748406800F00C00082818D1B44859
:101ED000406800F4803098B9B148006800F0020012
:101EE00020B12069012801D0012061E7AC480068D9
:101EF00020F0F800616940EAC100A949086033E0B8
:101F00002069E8B10120A7490860FFF769FA054692
:101F100006E0FFF765FA401B022801D9032047E7D6
:101F20009F48006800F002000028F2D09C4800683A
:101F300020F0F800616940EAC1009949086013E0A7
:101F4000002098490860FFF74BFA054606E0FFF7C6
:101F500047FA401B022801D9032029E7904800686E
:101F600000F002000028F2D1207800F008000828D4
:101F70002DD1A069B8B101208B490860FFF730FA74
:101F8000054606E0FFF72CFA401B022801D9032082
:101F90000EE78348406A00F002000028F2D00120DA
:101FA00001F02EFB13E000207F490860FFF718FACC
:101FB000054606E0FFF714FA401B022801D903206A
:101FC000F6E67748406A00F002000028F2D1207857
:101FD00000F00400042873D100277148C06900F0A4
:101FE000805070B900BF6E48C06940F080506C49A5
:101FF000C8610846C06900F08050009000BF00BF73
:1020000001276A48006800F48070B0B9674800682A
:1020100040F4807065490860FFF7E2F9054606E084
:10202000FFF7DEF9401B642801D90320C0E65F48B2
:10203000006800F480700028F2D000BFE06801283A
:1020400006D15748006A40F001005549086227E070
:10205000E06858B95248006A20F00100504908620F
:102060000846006A20F00400086219E0E0680528CC
:102070000BD14B48006A40F0040049490862084609
:10208000006A40F0010008620AE04548006A20F05A
:102090000100434908620846006A20F00400086213
:1020A00000BFE068A0B1FFF79BF9054609E0FFF724
:1020B00097F9401B41F28831884202D9032077E624
:1020C00022E03748006A00F002000028EFD012E05A
:1020D000FFF786F9054608E0FFF782F9401B41F259
:1020E0008831884201D9032062E62D48006A00F059
:1020F00002000028F0D1012F05D12948C06920F045
:1021000080502749C86100BFE069C8B324484068CF
:1021100000F00C00082860D0E069022848D10020B7
:1021200020490866FFF75CF9054606E0FFF758F915
:10213000401B022801D903203AE61948006800F044
:1021400000700028F2D1206AB0F5803F07D1144812
:10215000406820F40030A168084311494860D4E980
:10216000080108430E49496821F4741108430C49D9
:10217000486001200B490866FFF732F9054607E081
:102180003DE0FFF72DF9401B022801D903200FE69F
:102190000348006800F000700028F2D02FE0000033
:1021A00000100240000042428004424200700040A1
:1021B000002014490866FFF713F9054606E0FFF70B
:1021C0000FF9401B022801D90320F1E50E480068F1
:1021D00000F000700028F2D111E0E069012800D180
:1021E000E6E50948466806F48031206A814204D158
:1021F00006F47011606A814201D00120D8E5002008
:10220000D6E50000000042420010024070B50446CE
:102210002546681EB0F1807F01D301200FE0681EC3
:102220004FF0E02148610F214FF0FF3001F084FEB4
:1022300000204FF0E021886107200861002070BD78
:102240007047704730B502460B4600BF92F83C001D
:10225000012801D1022030BD012082F83C0000BFDE
:10226000022082F83D00106844681068816824F0FC
:1022700070041868044310684460104D1068A84248
:102280000BD01068B0F1804F07D00D4D1068A842F8
:1022900003D00C4D1068A84205D121F08001586888
:1022A000014310688160012082F83D0000BF0020DA
:1022B00082F83C0000BF00BFCDE70000002C0140C9
:1022C0000004004000080040704770B504462068D4
:1022D000C5682068066906F00200022819D105F0D9
:1022E0000200022815D1401F2168086101202077D3
:1022F0002068806900F0030018B12046FFF7E4FF72
:1023000005E0204600F0E0F8204600F0C7F9002084
:10231000207706F00400042819D105F004000428F1
:1023200015D1C043216808610220207720688069A8
:1023300000F4407018B12046FFF7C6FF05E02046C4
:1023400000F0C2F8204600F0A9F90020207706F03E
:102350000800082819D105F00800082815D1C04345
:1023600021680861042020772068C06900F003001C
:1023700018B12046FFF7A8FF05E0204600F0A4F8BA
:10238000204600F08BF90020207706F0100010287E
:1023900019D105F01000102815D1C043216808613B
:1023A000082020772068C06900F4407018B12046EA
:1023B000FFF78AFF05E0204600F086F8204600F08F
:1023C0006DF90020207706F0010048B105F001000A
:1023D00030B16FF0010021680861204600F0CAF9B1
:1023E00006F08000802809D105F08000802805D102
:1023F000C043216808612046FFF722FF06F0400035
:10240000402809D105F04000402805D1C04321688B
:102410000861204600F0AFF906F02000202809D11D
:1024200005F02000202805D1C0432168086120461E
:10243000FFF707FF70BD000010B586B0044600200E
:1024400002900390049005902068B0F1804F17D15E
:1024500000BF1A48806940F00400184988610846A6
:10246000806900F00400019000BF00BF0F200290BF
:1024700002200390059002A91148FEF71BFE1AE006
:1024800010492068884216D100BF0C48806940F08E
:1024900004000A4988610846806900F00400019040
:1024A00000BF00BFC020029002200390059002A947
:1024B0000348FEF7FFFD06B010BD0000001002400B
:1024C000000801400004004070472DE9F041044637
:1024D0000D461646002700BF94F83C00012802D1A3
:1024E0000220BDE8F081012084F83C0000BF36B135
:1024F000042E1BD0082E31D00C2E5ED145E029468B
:10250000206801F0EFF92068806940F00800216838
:1025100088612068806920F0040021688861206853
:102520008069296908432168886148E02946206854
:1025300001F008FA2068806940F400602168886131
:102540002068806920F48060216888612068806943
:10255000296940EA01202168886130E02946206825
:1025600001F024FA2068C06940F008002168C861C1
:102570002068C06920F004002168C8612068C06933
:10258000296908432168C86119E02946206801F0DB
:1025900041FA2068C06940F400602168C861206881
:1025A000C06920F480602168C8612068C069296919
:1025B00040EA01202168C86101E0012700BF00BF97
:1025C00000BF002084F83C0000BF384689E710B502
:1025D00004460CB9012010BD94F83D0028B9002034
:1025E00084F83C00204600F025F8022084F83D00E5
:1025F000211D206801F022F9012084F8460000BF67
:1026000084F83E0001213F20015540200155412022
:10261000015500BF00BF012084F84200432001554E
:10262000442001554520015500BF012084F83D009C
:102630000020D0E738B504462068B0F1804F16D1AD
:1026400000BF1448C06940F001001249C861084643
:10265000C06900F00100009000BF00BF002202210D
:102660001C20FFF72BFA1C20FFF718FA11E00A498B
:10267000206888420DD100BF0648C06940F00200C2
:102680000449C8610846C06900F00200009000BF1C
:1026900000BF38BD00100240000400407047000039
:1026A00070B504460D4615B994F83E000BE0042DB4
:1026B00002D13F20005D06E0082D02D14020005DE0
:1026C00001E04120005D012801D0012070BD1DB94D
:1026D000022084F83E000EE0042D03D102213F20A9
:1026E000015508E0082D03D102214020015502E0E8
:1026F00002214120015501222946206801F0E0F81D
:1027000019492068884201D1012000E0002028B149
:102710002068406C40F400402168486412492068F9
:1027200088420BD02068B0F1804F07D00F49206855
:10273000884203D00E49206888420CD12068806806
:1027400000F00706062E0CD02068006840F001005B
:102750002168086005E02068006840F001002168F9
:1027600008600020B2E70000002C01400004004097
:102770000008004070477047704770472DE9F84FD8
:102780000446206805682068C668206847694FF0DD
:102790000009CA4605F00F09B9F1000F0AD105F08A
:1027A000200038B106F0200020B1204601F0FEF9EB
:1027B000BDE8F88FB9F1000F7BD007F0010018B920
:1027C00006F49070002874D005F0010030B106F4D2
:1027D000807018B1606C40F00100606405F0040086
:1027E00030B107F0010018B1606C40F00200606485
:1027F00005F0020030B107F0010018B1606C40F044
:102800000400606405F0080048B106F0200010B92B
:1028100007F0010018B1606C40F008006064606C63
:10282000002845D005F0200028B106F0200010B1A6
:10283000204601F0BBF920684069C0F3801A606C43
:1028400000F0080010B9BAF1000F2CD0204601F0BA
:1028500023F92068406900F0400000B300BF00BFCA
:102860002168143151E8001F21F040002168143123
:1028700041E80002002AF3D100BFE06B50B1774875
:10288000E16B4863E06BFEF7A9FB88B1E06B416B3D
:1028900088470DE02046FFF770FF09E009E0204679
:1028A000FFF76BFF04E02046FFF767FF002060643E
:1028B0007EE7206B012877D105F01000002873D047
:1028C00006F010000028FAD000BF00200090206819
:1028D0000068009020684068009000BF00BF20683A
:1028E000406900F0400000285FD0E06B006840685D
:1028F0001FFA80F8B8F1000F55D0A08D404552DD89
:10290000A4F82E80E06B8069202843D000BF00BF70
:1029100021680C3151E8001F21F4807021680C31CE
:1029200041E80002002AF3D100BF00BF00BF2168C8
:10293000143151E8001F21F001002168143141E8F1
:102940000002002AF3D100BF00BF00BF216814318C
:1029500051E8001F21F040002168143141E80002D5
:10296000002AF3D100BF202084F842000020206319
:1029700000BF00BF21680C3151E8001F21F010009A
:1029800021680C3141E80002002AF3D100BFE06B5E
:10299000FEF7F9FA02206063A08DE28D801A81B201
:1029A0002046FFF7E9FE03E742E0A08DE18D401AE3
:1029B0001FFA80F8E08DD0B3B8F1000F37D000BF18
:1029C00000BF21680C3151E8001F21F4907021688C
:1029D0000C3141E80002002AF3D100BF00BF00BF64
:1029E0002168143151E8001F21F0010021681431E1
:1029F00041E80002002AF3D100BF202084F8420001
:102A00000020206300BF00BF21680C3151E8001F87
:102A100021F0100021680C3141E80002002AF3D1B6
:102A200000BF0220606341462046FFF7A5FEBFE6D7
:102A300005F0800030B106F0800018B1204601F0AA
:102A4000D1F9B5E605F0400030B106F0400018B10C
:102A5000204601F057F8ABE600BFA9E65D3A000852
:102A600010B504460CB9012010BDA06900B100E00A
:102A700000BF94F8410028B9002084F840002046A7
:102A800000F02AF8242084F841002068C06820F46F
:102A900000502168C860204601F006F920680069EE
:102AA00020F49040216808612068406920F02A00E5
:102AB000216848612068C06840F400502168C860FF
:102AC00000206064202084F8410084F84200002047
:102AD000606300BFC8E7000010B586B00446002060
:102AE00002900390049005901E492068884236D1D8
:102AF00000BF1D48806940F480401B49886108463A
:102B0000806900F48040019000BF00BF00BF08460C
:102B1000806940F0040088610846806900F0040084
:102B2000019000BF00BF48150290022003900320CF
:102B3000059002A90D48FEF7BDFA4FF4806002909F
:102B400000200390049002A90848FEF7B3FA00227F
:102B500001212520FEF7B2FF2520FEF79FFF06B0DA
:102B600010BD000000380140001002400008014084
:102B700070B504460D46164694F8420020280BD145
:102B800005B10EB9012070BD0020206332462946F0
:102B9000204601F007F9F6E70220F4E710B50446F5
:102BA0001C492068884233D11B48007828B1012293
:102BB0001A491B48FFF7DCFF10BD18480178194877
:102BC00002780078401C174B18701748815418463B
:102BD00000780A280DDB18460178134801F032F915
:102BE00018B10120114908700AE000200D49087051
:102BF00006E00C4800780A2802D300200949087032
:102C00000A48007820B9012204490548FFF7B0FFBF
:102C100000BFD1E7003801401E0000201A0000204C
:102C2000300100201B000020940100201D00002026
:102C30002DE9F84F04460E46174699464FF0000A14
:102C400094F84100202850D106B117B90120BDE801
:102C5000F88F00206064212084F84100FEF7C0FB5B
:102C60008246A784E784A068B0F5805F04D120691C
:102C700010B90025B04602E035464FF000081EE0CE
:102C80005346002280212046CDF8009001F0EBF859
:102C900020B1202084F841000320D8E745B9B8F8D6
:102CA0000000C0F308002168486008F1020803E052
:102CB0002878216848606D1CE08C401EE084E08C20
:102CC0000028DDD15346002240212046CDF8009057
:102CD00001F0C9F820B1202084F841000320B6E7B4
:102CE000202084F841000020B1E70220AFE77047C0
:102CF00000BFFEE7014608684069C0F38020B0B11C
:102D00006FF480600A68506100200863202081F819
:102D10003D00002081F83E00086C40F0040008648B
:102D200000BF002081F83C0000BF01207047002058
:102D3000FCE700002DE9F84304460F461546994686
:102D4000DDE908862068006840F48060216808603A
:102D50002068006840F480702168086043460022C3
:102D60004FF001112046009600F094F860B1206801
:102D7000006800F48070B0F5807F02D14FF40070DD
:102D800020640320BDE8F88307F0FE002168086195
:102D9000334642463E49204600F0DBF808B10120A8
:102DA000F0E700BF00200090206840690090206894
:102DB0008069009000BF00BF32464146204600F0C7
:102DC0008AF950B1206C042805D12068006840F4CD
:102DD0000070216808600120D4E7B9F1010F03D128
:102DE000E8B22168086117E0C5F30720216808618F
:102DF00032464146204600F06EF950B1206C04285E
:102E000005D12068006840F4007021680860012046
:102E1000B8E7E8B22168086132464146204600F032
:102E20005AF950B1206C042805D12068006840F49C
:102E30000070216808600120A4E72068006840F461
:102E4000807021680860434600224FF0011120463F
:102E5000009600F01FF858B12068006800F48070F8
:102E6000B0F5807F02D14FF400702064032089E721
:102E7000F8B240F001002168086133464246044937
:102E8000204600F066F808B101207BE7002079E7D2
:102E9000020001002DE9F04104460D4617461E468A
:102EA000DDF8188038E0701CA8B3FEF799FAA0EBA3
:102EB0000800B04200D876BBC5F3074001280AD10C
:102EC00020684069A9B20840A9B2884201D1012016
:102ED0000BE0002009E020688069A9B20840A9B28F
:102EE000884201D1012000E00020B84214D1002026
:102EF0002063202084F83D00002084F83E00206CF0
:102F000040F02000206400BF002084F83C0000BF97
:102F10000120BDE8F081FFE7C5F3074001280AD191
:102F200020684069A9B20840A9B2884201D10120B5
:102F30000BE0002009E020688069A9B20840A9B22E
:102F4000884201D1012000E00020B842ABD000202F
:102F5000DFE72DE9F04104460D4616461F4658E0CE
:102F600020684069C0F38020E8B12068006840F420
:102F70000070216808606FF480602168486100205B
:102F80002063202084F83D00002084F83E00206C5F
:102F900040F00400206400BF002084F83C0000BF23
:102FA0000120BDE8F081701C90B3FEF719FAC01B38
:102FB000B04200D866BBC5F3074001280AD120689B
:102FC0004069A9B20840A9B2884201D101200BE0B2
:102FD000002009E020688069A9B20840A9B28842AF
:102FE00001D1012000E0002090B9002020632020C2
:102FF00084F83D00002084F83E00206C40F0200062
:10300000206400BF002084F83C0000BF0120C8E716
:10301000FFE7C5F3074001280AD120684069A9B23B
:103020000840A9B2884201D101200BE0002009E04C
:1030300020688069A9B20840A9B2884201D1012064
:1030400000E0002000288BD00020AAE770B50446DD
:103050000D46164637E020684069C0F30010A0B165
:103060006FF010002168486100202063202084F860
:103070003D00002084F83E00206C206400BF00204A
:1030800084F83C0000BF012070BDFEF7A9F9801B49
:10309000A84200D8BDB920684069C0F3801090B93B
:1030A00000202063202084F83D00002084F83E00AA
:1030B000206C40F02000206400BF002084F83C0019
:1030C00000BF0120E0E720684069C0F380100028BD
:1030D000C1D00020D8E770B504460D46164625E05D
:1030E0002046FFF707FE08B1012070BD681CE8B15B
:1030F000FEF776F9801BA84200D8BDB92068406968
:10310000C0F3C01090B900202063202084F83D0057
:10311000002084F83E00206C40F02000206400BFB6
:10312000002084F83C0000BF0120DEE720684069F1
:10313000C0F3C0100028D3D00020D6E710B50D484A
:103140000D4908600420486000210B488160C1607F
:103150004FF44021016189004161002101764176EF
:103160008176C17601774177FDF7CBFD08B1FDF798
:1031700003FC10BD006400402400002000B585B0B1
:103180000020019002900390049000BF3F488069A6
:1031900040F010003D4988610846806900F0100049
:1031A000009000BF00BF00BF0846806940F02000CB
:1031B00088610846806900F02000009000BF00BFD1
:1031C00000BF0846806940F00400886108468069B5
:1031D00000F00400009000BF00BF00BF08468069F7
:1031E00040F0080088610846806900F008000090FF
:1031F00000BF00BF00224FF400512548FEF7EAF857
:10320000012230212348FEF7E5F800224FF618018D
:103210002148FEF7DFF800224FF480711D48FEF7C9
:10322000D9F84FF400500190012002900020039043
:103230000220049001A91648FDF73CFF30200190C0
:1032400011200290002003900220049001A911484F
:10325000FDF730FF4FF6180001900120029000208A
:1032600003900220049001A90B48FDF723FF4FF4BF
:1032700080700190012002900020039002200490B1
:1032800001A90448FDF716FF05B000BD001002407B
:103290000010014000080140000C014010B50B482F
:1032A0000B4908600B484860002109488160C160F3
:1032B0004FF480410161002141618161C16101627E
:1032C000FEF794F808B1FDF757FB10BD005400401D
:1032D0004C000020A086010000B589B000200790B6
:1032E00008901C216846FCF734FF4FF080402349CA
:1032F00008600620486000212048816040F2E731E4
:10330000C160002101618161FFF761F908B1FDF73A
:1033100033FB00200790089007A91848FEF792FF9A
:1033200008B1FDF729FB6020009000200190029079
:103330000490002269461148FFF7C7F808B1FDF76D
:103340001BFB042269460D48FFF7BFF808B1FDF7E3
:1033500013FB082269460948FFF7B7F808B1FDF7E3
:103360000BFB0C2269460548FFF7AFF808B1FDF7E3
:1033700003FB0248FFF760F809B000BDA000002081
:1033800000B589B00020079008901C216846FCF722
:10339000E0FE1C481C4908604720486000211A488C
:1033A000816044F61F61C160002101618161FFF706
:1033B0000EF908B1FDF7E0FA00200790089007A980
:1033C0001148FEF73FFF08B1FDF7D6FA60200090E4
:1033D0000020019002900490002269460A48FFF7FD
:1033E00074F808B1FDF7C8FA042269460648FFF7E9
:1033F0006CF808B1FDF7C0FA0348FFF71DF809B0F3
:1034000000BD000000040040E800002010B50B489B
:103410000B4908604FF4E1304860002108488160A2
:10342000C16001610C21416100218161C161FFF72F
:1034300017FB08B1FDF7A0FA10BD000000380140ED
:103440003001002000BFFEE710B5024800F0C0F8D0
:1034500010BD00007801002070B50446002C02DB8E
:1034600001F0A8FA01E001F095FA204601F080FA97
:1034700005462946042001F00DFB70BD70B50446D9
:10348000002C02DB01F0B6FA01E001F0A3FA2046BD
:1034900001F06EFA05462946002001F0FBFA70BDE6
:1034A00070B50446002C02DB01F0C2FA01E001F025
:1034B000B1FA204601F05CFA054629460C2001F0DD
:1034C000E9FA70BD70B50446002C02DB01F0D0FAB9
:1034D00001E001F0BBFA204601F04AFA0546294610
:1034E000082001F0D7FA70BD00BFFEE72DE9FE4FBE
:1034F00004460F46904614B90020BDE8FE8F4046B2
:1035000001F0E0FA824651463846FCF77FFE8146DC
:1035100001F0D8FA05460021E068FCF727FF22D029
:1035200029492846FCF72CFF1DD228492846FCF7DC
:103530001DFF18D229462068FCF716FE206061693D
:103540002068FCF71DFF02D2606920600BE0606913
:1035500080F0004948462168FCF712FF03D26069F9
:1035600080F00040206028466168FCF74FFE8346EB
:1035700065602168E068FCF74FFE029059462069BB
:10358000FCF74AFE01902946A068FCF745FE009032
:103590000199FCF7E9FD81460299FCF7E5FD064635
:1035A0003046A169FCF7ECFE01D2A6690AE0A069E9
:1035B00080F0004931464846FCF7E2FE02D2A0699D
:1035C00080F00046304698E70000F0C10000F0416E
:1035D00000B97047064981600902C160016105496F
:1035E00041610549816100210160416000BFF0E750
:1035F0000000404100000C420000AF437047000053
:1036000008B508490968C9084FF47A72B1FBF2F1AC
:103610004143009100BF00BF00994A1E009200295B
:10362000F9D108BD0C0000202DE9FF414FF0FF301B
:10363000022103AA0123CDE9002102903F22A0210B
:103640000D48FDF7BBFF05461DB1002004B0BDE8E5
:10365000F0819DF80C009DF80D1040EA01242046F1
:10366000FCF753FE07464FF08E41FCF707FE064677
:103670000249FCF7D1FDE9E74C000020000034438B
:103680007047000010B500210348FFF709F8042136
:103690000148FFF705F810BDE800002010B5FFF75E
:1036A000C3FF0446234607480268074801880748C5
:1036B000008801F033F90648007810B1042000F0CA
:1036C00037F810BD14000020120000201000002068
:1036D0001D00002070B501F037F9FFF7B5FE0B486B
:1036E000FDF736F900F0C4F9FFF7CCFFFFF79CFFB8
:1036F0000646FCF728FE044622460B4604A000F0CE
:1037000003FC012000F014F870BD0000240000202C
:10371000496E6974205961773A20252E32660A0075
:10372000002002490870487070470000180000200F
:1037300005490978814205D003490978024A517048
:1037400011460870704700001800002010B50F489F
:103750000078052813D2DFE800F00306090C0F00FB
:10376000FFF7B8FF0FE0FFF799FF0CE000F010F84B
:1037700009E000F00EF806E000F00CF803E001208C
:10378000FFF7D6FF00BF00BF10BD000018000020EB
:103790007047704710B504A000F0B6FB00F0C2F906
:1037A0000120FFF7C5FF10BD554152545F506172B3
:1037B00073655F48616E646C65720A0010B5FEF750
:1037C000FDF810BD00B58FB0282105A8FCF7C1FC9D
:1037D00014216846FCF7BDFC01200590000406900A
:1037E000002007900120099002200C90C1030D9148
:1037F0004FF4E0110E9105A8FEF7D6FA08B1FDF7D7
:10380000BBF80F20009002200190002002904FF49E
:10381000806003900020049002216846FEF7A0F922
:1038200008B1FDF7A9F80FB000BD704710B5024808
:10383000FEF74BFD10BD0000A000002010B502688F
:103840001C4B984208D0B0F1804F05D01A4B9842DB
:1038500002D01A4B984203D122F070024B681A43EF
:10386000144B984208D0B0F1804F05D0124B9842CB
:1038700002D0124B984203D122F44072CB681A4313
:1038800022F080034C6943EA040202608B68C36241
:103890000B688362074B984201D10B6903630123D4
:1038A0004361036903F001031BB1036923F00103C2
:1038B000036110BD002C01400004004000080040DE
:1038C00030B501F01F05012404FA05F3046A9C4396
:1038D0000462046A01F01F0502FA05F52C43046234
:1038E00030BD000030B5026A056A25F001050562A9
:1038F0004368846924F0700424F003040D682C43A9
:1039000022F002028D682A430D4DA84206D100BF65
:1039100022F00802CD682A4322F00402084DA84292
:1039200007D123F4807323F400734D692B438D6911
:103930002B43436084614D684563026230BD0000E3
:10394000002C014030B5026A056A25F010050562B9
:103950004368846924F4E04424F440740D6844EA24
:10396000052422F020028D6842EA05120E4DA8427D
:1039700007D100BF22F08002CD6842EA051222F092
:103980004002094DA84209D123F4806323F4006367
:103990004D6943EA85038D6943EA85034360846189
:1039A0004D688563026230BD002C014030B5026A6B
:1039B000056A25F4807505624368C46924F07004C3
:1039C00024F003040D682C4322F400728D6842EA4F
:1039D00005220F4DA84207D100BF22F40062CD6836
:1039E00042EA052222F48062094DA84209D123F45B
:1039F000805323F400534D6943EA05138D6943EA6C
:103A000005134360C4614D68C563026230BD0000A8
:103A1000002C014030B5036A056A25F48055056223
:103A20004468C26922F4E04222F440720D6842EA1E
:103A3000052223F400538D6843EA0533064DA8425E
:103A400004D124F480444D6944EA85144460C26181
:103A50004D680564036230BD002C014070B5054619
:103A60006C6A0020E085E0842046FEF786FE70BD8B
:103A700010B5002004490870044908700122044967
:103A80000448FFF775F810BD1D0000201B00002042
:103A90001A0000203001002000BF00BF02680C3275
:103AA00052E8002F22F4907102680C3242E80013B1
:103AB000002BF3D100BF00BF00BF0268143252E8F0
:103AC000002F22F001010268143242E80013002B9B
:103AD000F3D100BF016B01290ED100BF00BF026806
:103AE0000C3252E8002F22F0100102680C3242E83A
:103AF0000013002BF3D100BF202180F842100021D9
:103B00000163704710B504462068C06820F040008B
:103B10002168C860202084F841002046FFF7E7F8BC
:103B2000002010BD10B51A48007800B910BD012062
:103B300018490870184800781849087016484078E5
:103B400048701548807888701348C078C87012484B
:103B5000007908711048407948710F488079887160
:103B60000D48C079C8710C48007A08720A48407A3A
:103B70004872002007490870094908700449087014
:103B8000012208490848FEF7F3FF00BFCEE7000016
:103B90001D0000201E000020940100209E01002036
:103BA0001B0000201A00002030010020F8B5044658
:103BB00094F84200222875D1A068B0F5805F0CD13E
:103BC000206950B90025A66A20684068C0F3080043
:103BD0003080A06A801CA06215E0A56A0026A0685B
:103BE000B0F5805F03D0A06828B9206918B92068B3
:103BF0004068287004E02068406800F07F0028706A
:103C0000A06A401CA062E08D401E80B2E0850028C2
:103C100046D12068C06820F020002168C860206874
:103C2000C06820F480702168C8602068406920F076
:103C3000010021684861202084F842000020606370
:103C4000206B012826D10020206300BF00BF21681F
:103C50000C3151E8001F21F0100021680C3141E8BF
:103C60000002002AF3D100BF2068006800F01000B5
:103C700010280AD100BF0020009020680068009042
:103C800020684068009000BF00BFA18D2046FEF76D
:103C900073FD02E02046FEF781FF0020F8BD01E041
:103CA0000020FBE70220F9E770B5044621680969A6
:103CB00021F44051E2681143226811612269A16830
:103CC0001143626941EA02052168C96841F20C6248
:103CD000914329432268D1602168496921F44071E8
:103CE000A2691143226851612D4A2168914202D193
:103CF000FEF712F801E0FDF7FFFF00EBC00101EB5A
:103D0000001162689200B1FBF2F100EBC00202EB1D
:103D1000001263689B00B2FBF3F26423B2FBF3F280
:103D200002EBC20303EB0212A1EB8201322202EB8F
:103D300001116422B1FBF2F101F0F00100EBC002CD
:103D400002EB001263689B00B2FBF3F26423B2FB48
:103D5000F3F201EB021200EBC00101EB001163680A
:103D60009B00B1FBF3F100EBC00303EB00136668AB
:103D7000B600B3FBF6F36426B3FBF6F303EBC3061E
:103D800006EB0313A1EB8301322303EB0111642340
:103D9000B1FBF3F101F00F0111442268916070BD95
:103DA0000038014010B5034699629A85DA850020F3
:103DB0005864222083F84200186928B11868C06846
:103DC00040F480701C68E0601868406940F00100B1
:103DD0001C6860611868C06840F020001C68E060E2
:103DE000002010BD014691F84100212828D18868A3
:103DF000B0F5805F0BD1086948B90A6A1088C0F332
:103E000008000B685860086A801C086205E00B6AAD
:103E1000581C086218780B685860C88C401E80B225
:103E2000C88458B90868C06820F080000B68D86062
:103E30000868C06840F040000B68D86000207047F8
:103E40000220FCE702460A2901D0002070471078C2
:103E5000B32801D00020F9E7507AB42801D000201F
:103E6000F4E70120F2E72DE9F84304460D46174632
:103E70009846089E31E0701C70B3FDF7B1FAA0EBD4
:103E80000800B04200D816B90320BDE8F8832068C6
:103E9000C06800F00400F8B1802D1ED0402D1CD069
:103EA00020680068C0F3C000B0B100BF00200090DF
:103EB00020680068009020684068009000BF00BF44
:103EC0002046FFF7E9FD0820606400BF002084F869
:103ED000400000BF0120D8E7FFE7206800682840C5
:103EE000A84201D1012000E00020B842C3D0002048
:103EF000CBE7000010B50248FEF740FC10BD000003
:103F00003001002000BFFEE70FB4054B10B503A938
:103F1000044A029800F0F6F810BC5DF814FB0000AB
:103F2000354800082000002002480068C0F3022045
:103F3000704700000CED00E010B5002804DB0A0714
:103F4000130E054A135406E00A07140E034A00F044
:103F50000F031B1FD45410BD00E400E018ED00E077
:103F600002E008C8121F08C1002AFAD17047704742
:103F7000002001E001C1121F002AFBD170470000A0
:103F80002DE9FF5F82B00021DDE90430020DDDF88C
:103F900040B0034318D044F61050A2F2FF3242431F
:103FA0001514119801281FD0A5EB0B00401C5FEAE7
:103FB000000A4FF000064E4FDFF83891B0465046E9
:103FC00015D5CAF1000413E0119801244AA3012871
:103FD00001D16FEA0B010298119AC0E90031C0E9E2
:103FE000024206B0BDE8F09FCBF10000DFE70446D7
:103FF0000021404A491842EB0450CDE9001012E07C
:10400000E00707D032463B4640464946FCF7E7FA10
:104010008046894632463B4610461946FCF7DFFA91
:1040200006460F466410002CEAD1DDE90401DDE903
:104030000023BAF1000F06DAFCF7D1FA42464B46EC
:10404000FCF7CDFA05E0FCF73CFB42464B46FCF79B
:1040500038FB04460E460022284BFCF7B9FB03D878
:104060004FF0FF30014607E00022254B2046314645
:10407000FCF70EFAFCF794FB102409E0002C0ADB95
:104080000A220023FCF79CF9039B30321A55641E68
:1040900050EA0102F2D1641C039AC4F111031444E2
:1040A000119A012A03D0012208430DD10AE00843E6
:1040B00004D000204FF0110B119072E7A3EB0B0519
:1040C0006D1E0DE05B4504DD4FF0000205F10105BA
:1040D00004E003DA4FF00002A5F10105002AECD05C
:1040E00002981199C0E90231C0E9004579E7000062
:1040F000000014400000F03F300000000000F043DA
:104100000000E03F2DE9FF4F95B09B4689460646EB
:1041100000250FE2252877D100242746F84A0121FF
:10412000059400E0044316F8013F203B01FA03F038
:104130001042F7D130782A2811D06FF02F03307851
:10414000A0F13002092A16D8059A44F0020402EBC5
:10415000820203EB42021044761C0590EFE759F807
:10416000042B0592002A03DA504244F400540590CF
:1041700044F00204761C30782E2816D116F8010F70
:1041800044F004042A280DD06FF02F023078A0F1FB
:104190003003092B09D807EB870302EB4303C71849
:1041A000761CF3E759F8047B761C30786C280FD026
:1041B00006DC4C2817D068280DD06A2814D104E0FA
:1041C000742810D07A280FD10DE044F400140AE0CE
:1041D00044F4801401E044F440147278824202D125
:1041E00004F58014761C761C307866280BD013DC1E
:1041F000582877D009DC002875D04528F6D0462805
:10420000F4D047281AD19DE118E0632835D06428FE
:1042100079D0652812D195E1702873D008DC672821
:10422000F1D069286FD06E280DD06F2806D1B5E087
:1042300073282CD0752875D0782874D05A461799D1
:1042400090476D1C75E1C4F30250022809D0032881
:104250000DD0D9F8001004280DD00D6009F1040923
:1042600067E1D9F80010EA17C1E90052F6E7D9F87A
:1042700000100D80F2E70D70F0E719F8041B8DF8BF
:10428000001000208DF80100EA46012003E059F8F3
:1042900004AB4FF0FF3061074FF0000102D40DE096
:1042A00008F101018846B9420FDA8045F8DB1AF8B7
:1042B00008100029F4D108E008F101018846814284
:1042C000FADB1AF808100029F6D105985B46A0EB36
:1042D000080721463846179A00F094FA284400EB64
:1042E000080507E04DE029E10DE01AF8010B5A46F8
:1042F00017999047B8F10108F7D25B462146384636
:10430000179A13E142E00A220092C4F302524FF0DE
:10431000000A022A08D059F804CB032A4FEAEC71AC
:104320000AD00DE029E02AE009F1070121F0070297
:10433000F2E802C1914609E00FFA8CFC4FEAEC71F9
:10434000042A03D14FFA8CFC4FEAEC71002907DAFA
:104350000A460021DCF1000C61EB02012D2202E093
:10436000220504D52B228DF80420012203E0E20768
:1043700001D02022F7E7904659E00A2102E01022FE
:104380000DE010214FF0000A00910BE010224FF0D9
:10439000000A44F004040827009203E008224FF0CA
:1043A000000A0092C4F30252022A05D059F804CB45
:1043B0000021032A08D009E009F1070121F00702D2
:1043C000F2E802C1914605E01FFA8CFC042A01D1F3
:1043D0000CF0FF0C4FF00008220728D5702806D0FB
:1043E000009B83F0100353EA0A0305D00EE040223D
:1043F0008DF80420012208E05CEA010206D0302298
:104400008DF804208DF8050002229046009B83F071
:10441000080353EA0A030AD15CEA010201D16207E8
:1044200005D530228DF804204FF001087F1E582852
:1044300004D034A003900EA802900DE036A0F9E756
:1044400053466046009AFBF7BBFF84460398825CA4
:104450000298401E029002705CEA0100F0D10298BE
:1044600006A9081A00F1200A600702D524F4803456
:1044700000E00127574502DDA7EB0A0000E000201D
:1044800000EB0A01009005984144401A0590E003B2
:1044900006D45B462146179A059800F0B3F9054407
:1044A000002706E001A85A46C05D179990476D1C89
:1044B0007F1C4745F6DBE0030CD55B462146179A87
:1044C000059800F09FF9054404E030205A461799FA
:1044D00090476D1C0099481E00900029F5DC08E00B
:1044E000029802995A460078491C02911799904700
:1044F0006D1CBAF10001AAF1010AF1DC65E10000CE
:1045000009280100303132333435363738396162A9
:10451000636465660000000030313233343536376D
:1045200038394142434445460000000000F058F944
:104530000544761C307800287FF4ECAD19B028468D
:10454000BDE8F08F620700D4062709F1070222F0C8
:10455000070CFCE80223E14603F000485FEA080C80
:1045600002D00FF2702C0DE05FEA045C02D50FF26E
:10457000682C07E05FEAC47C02D00FF2602C01E0F7
:10458000AFF2700C4FF0FF3823F00043CDF850C06D
:1045900065280CD006DC452809D046281DD04728C0
:1045A0003DD13DE0662818D067287ED138E0002153
:1045B000112F01DB112000E0781CCDE9000106A9D4
:1045C0000EA8FFF7DDFCDDE90F010E9A0391002133
:1045D000009207F1010A04914DE04FF0004000976E
:1045E000CDE9011006A90EA8FFF7CAFCDDE90F020C
:1045F00003920E9B11990022DDF80CA00093049207
:1046000011B9791C00EB010AB7EB0A0004D4C0F120
:10461000FF3007F1010A0490AAEB0700019044E083
:10462000012F00DA01270021112F01DD112000E008
:104630003846CDE9000106A90EA8FFF7A1FCDDE987
:104640000F010E9A0391002104910092BA462107AE
:104650000CD40399514500DA8A46BAF1010F05DD01
:10466000009AAAF10101515C302908D0B84202DA5F
:1046700010F1040F06DA0121CDE9011015E0AAF1CD
:104680000101E9E7002805DC049901440491AAEB43
:10469000000102E0411C514500DD8A460499401AA0
:1046A000401C01904FF000400290200704D4019874
:1046B000504501DBCDF8048000208DF84F000298B2
:1046C0000DF14F07B0F1004F25D02B200E9002982E
:1046D0004FF0020800280CDA404202902D200E9084
:1046E00007E00A210298FBF755FE3031029007F8E7
:1046F000011DB8F10001A8F10108F2DC02980028C0
:10470000EFD1791E0E980870307800F0200040F04C
:10471000450007F8020D12A8C01B00F10708149805
:10472000007800B1012000EB0A01019801EBE07173
:1047300005984144401A401E0590E00306D45B46AC
:104740002146179A059800F05DF805441498007802
:1047500018B15A46179990476D1CE00324D55B4663
:104760002146179A059800F04DF805441CE004987E
:10477000002807DBDDE90301884203DD0098405C87
:10478000179901E0179930205A469047049805F18F
:104790000105401C04900198401E019004D12E2078
:1047A0005A46179990476D1CBAF10001AAF1010A07
:1047B000DDDC05E017F8010B5A46179990476D1C90
:1047C000B8F10001A8F10108F4DC5B462146179A14
:1047D0000598ABE62D0000002B0000002000000033
:1047E0002DE9F041044600251E461746880404D4EE
:1047F00005E039462020B0476D1C641EF9D52846D7
:10480000BDE8F0812DE9F041044600251E469046A2
:10481000C80301D5302700E02027880404D505E02F
:1048200041463846B0476D1C641EF9D52846BDE8A0
:10483000F081000013B582B00C466423012202A966
:104840000848FEF7F5F902980A2808D10D200190D2
:104850006423012201A90348FEF7EAF900BF029888
:1048600004B010BD30010020FDF7B4F8FEF7AAFF38
:10487000FEF784FCFEF730FDFEF7C8FDFEF780FD75
:10488000FEF70CFDFEF75AFC4FF47A70FCF7FEFBC6
:10489000FEF746FF01E0FEF759FFFCE72DE9F84F70
:1048A00004460D461646601BFBF726FD3146009078
:1048B000FBF75AFC8346FBF72DFD07466019FBF713
:1048C0001BFD31460090FBF7A1FC8346FBF722FD60
:1048D00080466019FBF710FD31460090FBF744FC61
:1048E0008346FBF717FD8146601BFBF705FD31464C
:1048F0000090FBF78BFC8346FBF70CFD82463846A5
:10490000FEF7BCFD4046FEF7DDFD4846FEF7A4FD80
:104910005046FEF7C5FDBDE8F88F00002DE9F041D7
:1049200006460F4614461D462A4621460548FEF710
:10493000DDFD8046424639463046FFF7AFFFBDE811
:10494000F08100007801002010B500210748FDF734
:10495000A7FE04210548FDF7A3FE08210348FDF743
:104960009FFE0C210148FDF79BFE10BDA00000201A
:104970000246002A01DA534200E01346184600219D
:10498000034B03B1D96811B1884200D9084670477A
:10499000A000002010B500224FF400510448FCF79D
:1049A00019FD012291030248FCF714FD10BD00001F
:1049B000000C014010B500224FF480410448FCF780
:1049C00009FD012251030248FCF704FD10BD00005F
:1049D000000C014010B5012211030548FCF7FAFC58
:1049E00000224FF400610248FCF7F4FC10BD000007
:1049F000000C014010B50122D1020548FCF7EAFC89
:104A000000224FF480510248FCF7E4FC10BD000086
:104A1000000C014010B5012210210448FCF7DAFC1B
:104A2000002208210148FCF7D5FC10BD000C014014
:104A300010B5012208210448FCF7CCFC002210210B
:104A40000148FCF7C7FC10BD000C014010B5002266
:104A50004FF400410448FCF7BDFC01221102034859
:104A6000FCF7B8FC10BD0000000C0140000801403C
:104A700010B500224FF480710448FCF7ABFC012212
:104A8000D1030348FCF7A6FC10BD0000000801405C
:104A9000000C014018B90A4A126851630EE004285C
:104AA00003D1074A1268916308E0082803D1044A39
:104AB0001268D16302E0024A126811647047000074
:104AC000A000002010B5044604E00B492046FBF787
:104AD0009DFB044609492046FBF752FCF5D304E050
:104AE00005492046FBF740FB044605492046FBF7F5
:104AF0003DFCF5D3204610BD0000B4430000344314
:104B0000000034C302030405060708090A0B0C0D54
:104B10000E0F101001020000000000000000010252
:104B20000304060708090000000001020304000056
:104B3000504B00080000002024000000603F0008E7
:104B4000744B00082400002094050000703F00080A
:104B500000000000100000000100000000127A00B8
:104B60000000000000000000000000000000000045
:044B70000000000041
:04000005080000ED02
:00000001FF
